:100000000C9446000C9465000C9465000C946500FB
:100010000C9465000C9465000C9465000C946500CC
:100020000C9465000C9465000C9465000C946500BC
:100030000C9465000C9465000C9465000C946500AC
:100040000C9465000C9465000C9465000C9465009C
:100050000C9465000C9465000C9465000C9465008C
:100060000C9465000C9465000C9465000C9465007C
:100070000C9465000C9465000C9465000C9465006C
:100080000C9465000C9465000C94650011241FBE4F
:10009000CFEFD0E1DEBFCDBF11E0A0E0B1E0E4E4FE
:1000A000F1E000E00BBF02C007900D92AA30B1074B
:1000B000D9F711E0AAE0B1E001C01D92AE30B1075E
:1000C000E1F70E948A000C94A0000C940000FB0150
:1000D0008130910519F488E090E010C082309105DC
:1000E00019F484E090E00AC08330910519F482E0AD
:1000F00090E004C0049731F481E090E090930D010A
:1001000080930C0180910C0182BBE050FF4F8081F5
:1001100088BB0895CF93DF939FEF97BB8FE081BBA0
:100120009ABB9BBBC1E0D0E060910A0170910B01CA
:10013000CE010E9467002196C930D1059CF7F4CF0B
:04014000F894FFCF61
:0A0144003F065B4F666D7C277F6766
:00000001FF
