:100000000C9446000C9465000C9465000C946500FB
:100010000C9465000C9465000C9465000C946500CC
:100020000C9465000C9465000C9465000C946500BC
:100030000C9465000C9465000C9465000C946500AC
:100040000C9461010C9465000C9465000C9465009F
:100050000C9465000C9465000C9465000C9465008C
:100060000C9465000C9465000C9465000C9465007C
:100070000C9465000C9465000C9465000C9465006C
:100080000C9465000C9465000C94650011241FBE4F
:10009000CFEFD0E1DEBFCDBF11E0A0E0B1E0E2EDF7
:1000A000F3E000E00BBF02C007900D92A832B10749
:1000B000D9F711E0A8E2B1E001C01D92A233B10767
:1000C000E1F70E94E5000C94E7010C940000FB01AD
:1000D000019728E030E002C0359527958A95E2F730
:1000E0002BBBE65FFE4F808185BB0895FB01019726
:1000F00028E030E002C0359527958A95E2F722BBCB
:10010000E65FFE4F808188BB089580912A0168E0F8
:1001100062BBAAE0B1E0FD01E80FF11D808188BB60
:1001200020EA3FE0C9010197F1F780912B0154E0EB
:1001300052BBFD01E80FF11D808188BBC901019709
:10014000F1F780912C0142E042BBFD01E80FF11D67
:10015000808188BBC9010197F1F780912D0191E061
:1001600092BBFD01E80FF11D808188BBF901319739
:10017000F1F780912E016BBBFD01E80FF11D80812D
:1001800085BBF9013197F1F780912F015BBBFD0130
:10019000E80FF11D808185BBF9013197F1F780915E
:1001A00030014BBBFD01E80FF11D808185BBF901DA
:1001B0003197F1F7809131019BBBA80FB11D8C9154
:1001C00085BBC9010197F1F708958FEF8ABB87BB03
:1001D00084BB8FE081BB98E090932A0187E08093F5
:1001E0002B0186E080932C0190932D0180912A01B0
:1001F00090912B01A0912C01B0912D0180932E01A3
:1002000090932F01A0933001B09331010E9485009B
:10021000FDCFCF93DF9360E070E0C8E0D0E0A0EACC
:10022000BFE01AC0CE01042E02C0959587950A94AE
:10023000E2F782BB219128BB8BBB25BBCD01019787
:10024000F1F74F5F5F4F4830510561F76F5F7F4FA8
:1002500082E0653D780729F0EBE0F1E040E050E016
:10026000E1CFDF91CF9108958FE08BBB82BBAAE0F5
:10027000B1E040EF20E931E08C9185BB88BB8BB3C6
:1002800084278BBB80E197E2F9013197F1F7019761
:10029000D9F7119681E0AA31B80771F7089508954A
:1002A0008FEF8ABB87BB84BB8FE081BB089587E05B
:1002B00083BF80E782BF81E487BF80E486BF7894F4
:1002C00008951F920F920FB60F9211248F93809171
:1002D0002601815080932601809128018F5F8093B1
:1002E000280180912601882351F484E68093260119
:1002F00080911E018F5F80931E011092280180E77C
:1003000082BF8F910F900FBE0F901F901895809114
:100310002801843611F41092280180911E018C333B
:1003200039F410921E0180911D018F5F80931D0191
:1003300080911D018D3338F010921D0180911C01B8
:100340008F5F80931C0180911C01883139F41092D9
:100350001C01809124018F5F8093240180912401EE
:10036000803238F010922401809123018F5F8093B6
:100370002301809123018C3039F410922301809164
:1003800022018F5F80932201809121018C3339F407
:100390001092210180912001815080932001809151
:1003A00020018C3339F41092200180911F0181507B
:1003B00080931F0180911F01883111F410921F0159
:1003C000809121018091200180911F010895F8946E
:0203D000FFCF5D
:1003D2003F065B4F666D7C277F67C0F9A4B0999298
:1003E20082F880988883C6A1868E0100173B370267
:0803F2000A370F0601016464E3
:00000001FF
