:100000000C9446000C9465000C9465000C946500FB
:100010000C9465000C9465000C9465000C946500CC
:100020000C9465000C9465000C9465000C946500BC
:100030000C9465000C9465000C9465000C946500AC
:100040000C9407010C9465000C9465000C946500F9
:100050000C9465000C9465000C9465000C9465008C
:100060000C9465000C9465000C9465000C9465007C
:100070000C9465000C9465000C9465000C9465006C
:100080000C9465000C9465000C94650011241FBE4F
:10009000CFEFD0E1DEBFCDBF11E0A0E0B1E0EEE5F3
:1000A000F2E000E00BBF02C007900D92A832B1074A
:1000B000D9F711E0A8E2B1E001C01D92AA32B10760
:1000C000E1F70E94E6000C942D010C940000FB0166
:1000D000019728E030E002C0359527958A95E2F730
:1000E0002BBBE65FFE4F808185BB0895FB01019726
:1000F00028E030E002C0359527958A95E2F722BBCB
:10010000E65FFE4F808188BB0895FB018130910539
:1001100011F488E00DC08230910511F484E008C02C
:100120008330910511F482E003C0049711F481E05B
:1001300082BB8FEF82BBE65FFE4F808188BB089554
:10014000CF93DF938FE08BBB82BBAAE0B1E040EF9F
:1001500020E931E08C9185BB88BB8BB384278BBBB6
:1001600080E197E2F9013197F1F70197D9F71196FC
:1001700081E0AA31B80771F760E070E0C8E0D0E034
:10018000A0EABFE01BC0CE01042E02C09595879562
:100190000A94E2F782BB248128BB8BBB819185BB8B
:1001A000CD010197F1F74F5F5F4F4430510559F78B
:1001B0006F5F7F4F82E0653D780729F0EBE0F1E06B
:1001C00040E050E0E0CFDF91CF9108958FEF8ABB00
:1001D00087BB84BB8FE081BB0E94A000FDCF83E082
:1001E00080936A00789408958FEF8ABB87BB84BBA5
:1001F0008FE081BB089597E093BF80E782BF95BDF4
:1002000084BD81E487BF80E486BF789408951F92FF
:100210000F920FB60F9211248F9380912601815077
:1002200080932601809128018F5F8093280180911F
:100230002601882351F484E68093260180911E01D3
:100240008F5F80931E011092280180E782BF8F91FB
:0E0250000F900FBE0F901F901895F894FFCFDF
:10025E003F065B4F666D7C277F67C0F9A4B099920D
:10026E0082F880988883C6A1868E0100173B3702DC
:08027E000A370F060101646458
:00000001FF
