:100000000C9446000C9465000C9465000C946500FB
:100010000C9465000C9465000C9465000C946500CC
:100020000C9465000C9465000C9421010C946500FF
:100030000C9465000C9465000C94FF000C948600F1
:100040000C9465000C9465000C9465000C9465009C
:100050000C9465000C9465000C9465000C9465008C
:100060000C9465000C9465000C9465000C9465007C
:100070000C9465000C9465000C9465000C9465006C
:100080000C9465000C9465000C94650011241FBE4F
:10009000CFEFD0E1DEBFCDBF11E0A0E0B1E0E2E004
:1000A000F5E000E00BBF02C007900D92AA31B10746
:1000B000D9F711E0AAE1B1E001C01D92AE32B1075B
:1000C000E1F70E9443020C947F020C9400008FEF32
:1000D0008ABB87BB84BB8FE081BB82B3806F82BB4E
:1000E00008950895F89487B7866887BF83B78C64AE
:1000F00083BF89EF81BF8FE89DEF9DBD8CBD1FBC85
:1001000084E08EBD80E784BD789408951F920F929D
:100110000FB60F920BB60F9211248F93EF93FF93AC
:100120008BB3807F8BBB82B3807F82BB80912101A8
:100130008230E9F0833020F4813009F04AC006C0F3
:10014000833031F1843009F044C033C0E0912301A1
:10015000F0E0E050FF4F808185BBE0912701F0E0A7
:10016000E050FF4F808188BBDB9A939A32C0E091C8
:100170002401F0E0E050FF4F808185BBE091280131
:10018000F0E0E050FF4F808188BBDA9A929A21C05C
:10019000E0912501F0E0E050FF4F808185BBE091C8
:1001A0002901F0E0E050FF4F808188BBD99A919AF5
:1001B00010C0E0912601F0E0E050FF4F808185BB48
:1001C000E0912A01F0E0E050FF4F808188BBD89A8F
:1001D000909A809121018F5F80932101809121016C
:1001E000853018F081E080932101FF91EF918F918C
:1001F0000F900BBE0F900FBE0F901F9018951F927F
:100200000F920FB60F9211248F939F938FE89DEF5B
:100210009DBD8CBD80912B018F5F80932B018091C0
:100220002B01843638F0809115018F5F8093150182
:1002300010922B019F918F910F900FBE0F901F90E6
:1002400018951F920F920FB60F9211240F900FBEA8
:100250000F901F901895CF93DF9384E080932C012B
:1002600064E071E0C0E2DEE4A1E0B0E03FC080B352
:10027000462F50E090E0062E02C0959587950A948F
:10028000E2F79A012450304080FF1BC0F901E65E7E
:10029000FE4F8081813049F560932C0110822BB391
:1002A00081E090E0062E02C0880F991F0A94E2F7C1
:1002B00028272BBB80E29EE40197F1F7862F83501D
:1002C0001BC0F901E65EFE4F8081882371F47083C4
:1002D000CE010197F1F72BB3CD01062E02C0880F96
:1002E000991F0A94E2F728272BBB6F5F683008F448
:1002F000BECF60932C018FEFDF91CF910895809155
:1003000015018C3350F0809115018C5380931501A9
:10031000809114018F5F80931401809114018C33BC
:1003200050F0809114018C5380931401809113013B
:100330008F5F8093130180911301883150F0809179
:100340001301885180931301809119018F5F80936D
:10035000190180911901803250F080911901805269
:1003600080931901809118018F5F8093180180910B
:1003700018018C3050F0809118018C508093180136
:10038000809117018F5F80931701089581E080931A
:10039000230182E08093240183E08093250184E09F
:1003A0008093260185E08093270186E080932801D1
:1003B00087E08093290188E080932A010895809145
:1003C00015016AE00E947302909323018091150148
:1003D0000E94730280932401809114010E94730291
:1003E00090932501809114010E947302809326014D
:1003F000809113010E947302909327018091130151
:100400000E94730280932801809119010E94730257
:1004100090932901809119010E94730280932A010F
:10042000089580912B016AE00E947302909323014A
:1004300080912B010E947302809324018091150109
:100440000E94730290932501809115010E9473020E
:1004500080932601809114010E94730290932701DA
:10046000809114010E9473028093280180911301EE
:100470000E94730290932901809113010E947302DC
:1004800080932A010895CF93DF930E9467000E9412
:100490007200C0E9D1E080912D01882319F08130EC
:1004A00039F403C00E94DF0105C00E94110202C09E
:1004B0000E94C60188EE93E0FE013197F1F70197A3
:1004C000D9F70E947F010E942B01843021F780918F
:1004D0002D018F5F80932D0180912D018430D8F202
:1004E00010922D01D8CF991B79E004C0991F96175F
:1004F00008F0961B881F7A95C9F780950895F8949F
:02050000FFCF2B
:10050200C0F9A4B0999282F880988883C6A1868E99
:0A051200058FFD173B3364130C1F27
:00000001FF
