:100000000C9446000C945D000C945D000C945D0013
:100010000C945D000C945D000C945D000C945D00EC
:100020000C945D000C945D000C945D000C945D00DC
:100030000C945D000C945D000C945D000C945D00CC
:100040000C945D000C945D000C945D000C945D00BC
:100050000C945D000C945D000C945D000C945D00AC
:100060000C945D000C945D000C945D000C945D009C
:100070000C945D000C945D000C945D000C945D008C
:100080000C945D000C945D000C945D0011241FBE67
:10009000CFEFD0E1DEBFCDBF11E0A0E0B1E0E0EEF8
:1000A000F1E000E00BBF02C007900D92AC31B10748
:1000B000D9F70E945F000C94EE000C940000BF92F0
:1000C000CF92DF92EF92FF920F931F93CF93DF9324
:1000D0008FEF8ABB87BB84BB8FE081BB3FE020EF03
:1000E000B22E90E9C92E91E0D92E8BE0E82E81E066
:1000F000F82E08E010E0C0EADFE03BBB32BBAAE02C
:10010000B1E08C9185BB88BB8BB38B258BBB80E129
:1001100097E2F6013197F1F70197D9F7119681E04F
:10012000AA31B80771F760E070E01BC0C801042E67
:1001300002C0959587950A94E2F782BB248128BB7B
:100140008BBB819185BBCE010197F1F74F5F5F4F6C
:100150004430510559F76F5F7F4F82E0653D780766
:1001600061F2F70140E050E0E1CFFB01019728E0A8
:1001700030E002C0359527958A95E2F72BBBE65F04
:10018000FE4F808185BB0895FB01019728E030E098
:1001900002C0359527958A95E2F722BBE65FFE4FB0
:1001A000808188BB0895FB018130910511F488E0BE
:1001B0000DC08230910511F484E008C083309105B0
:1001C00011F482E003C0049711F481E082BB8FEF49
:1001D00082BBE65FFE4F808188BB0895F894FFCF15
:1001E0003F065B4F666D7C277F67C0F9A4B099928C
:0C01F00082F880988883C6A1868E0100EA
:00000001FF
