:100000000C9446000C9465000C9465000C946500FB
:100010000C9465000C9465000C9465000C946500CC
:100020000C9465000C9465000C9465000C946500BC
:100030000C9465000C9465000C9465000C946500AC
:100040000C9465000C9465000C9465000C9465009C
:100050000C9465000C9465000C9465000C9465008C
:100060000C9465000C9465000C9465000C9465007C
:100070000C9465000C9465000C9465000C9465006C
:100080000C9465000C9465000C94650011241FBE4F
:10009000CFEFD0E1DEBFCDBF11E0A0E0B1E0E4E002
:1000A000F1E000E00BBF02C007900D92A030B10755
:1000B000D9F711E0A0E0B1E001C01D92A230B10774
:1000C000E1F70E9467000C9480000C9400008FEF11
:1000D0008ABB87BB84BB8FE081BB80EF8BBB20E4F6
:1000E0003CE9C9010197F1F7849B02C0DC98F9CF84
:1000F000DC9AF7CF849B02C0DC980895DC9A0895BF
:04010000F894FFCFA1
:00000001FF
