:100000000C9446000C9465000C9465000C946500FB
:100010000C9465000C9465000C9465000C946500CC
:100020000C9465000C9465000C9465000C946500BC
:100030000C9465000C9465000C9465000C947F0092
:100040000C9465000C9465000C9465000C9465009C
:100050000C9465000C9465000C9465000C9465008C
:100060000C9465000C9465000C9465000C9465007C
:100070000C9465000C9465000C9465000C9465006C
:100080000C9465000C9465000C94650011241FBE4F
:10009000CFEFD0E1DEBFCDBF11E0A0E0B1E0EAEDEF
:1000A000F2E000E00BBF02C007900D92A231B10751
:1000B000D9F711E0A2E1B1E001C01D92A432B1076D
:1000C000E1F70E942C010C946B010C9400008FEF5F
:1000D0008ABB87BB84BB8FE081BB08950895F894E9
:1000E00083B78C6083BF83B713BE8CE083BF89EF77
:1000F00081BF82E087BF80E88FBF789408951F9208
:100100000F920FB60F920BB60F9211248F93EF93AD
:10011000FF938BB31BBA82B312BA15BA18BA809187
:1001200019018230E9F0833020F4813009F04AC0AF
:1001300006C0833031F1843009F044C033C0E0910F
:100140001B01F0E0E050FF4F808185BBE0911F0173
:10015000F0E0E050FF4F808188BBD89A909A32C07F
:10016000E0911C01F0E0E050FF4F808185BBE09101
:100170002001F0E0E050FF4F808188BBD99A919A2E
:1001800021C0E0911D01F0E0E050FF4F808185BB70
:10019000E0912101F0E0E050FF4F808188BBDA9AC6
:1001A000929A10C0E0911E01F0E0E050FF4F808174
:1001B00085BBE0912201F0E0E050FF4F808188BBD9
:1001C000DB9A939A809119018F5F80931901809136
:1001D0001901853018F081E080931901FF91EF91AA
:1001E0008F910F900BBE0F900FBE0F901F90189520
:1001F00084E08093230144E051E060E47CE925C081
:1002000080B3242F30E090E0042E02C095958795AE
:100210000A94E2F7F901EE5EFE4F80FF0EC0808186
:10022000813091F44093230110828BB380588BBBB3
:1002300080E49CE90197F1F70DC08081882321F4C7
:100240005083CB010197F1F74F5F4830C8F24093DC
:1002500023014FEF842F0895CF93DF938FEF8ABB55
:1002600087BB84BB8FE081BB0E946F0081E08093DD
:100270001B0182E080931C0183E080931D0184E0D8
:1002800080931E0185E080931F0186E0809320010A
:1002900087E08093210188E08093220128E833E100
:1002A000C0E9D1E005C0CE010197F1F721503040FF
:1002B00021153105C1F70E94F80080911B018F5F65
:1002C00080931B0180911B01803110F010921B0163
:0A02D00028E833E1E8CFF894FFCFEF
:1002DA00C0F9A4B0999282F880988883C6A1868EC4
:0202EA00010011
:00000001FF
